{
  "contractName": "CarLog",
  "abi": [
    {
      "inputs": [],
      "payable": false,
      "stateMutability": "nonpayable",
      "type": "constructor"
    },
    {
      "constant": true,
      "inputs": [
        {
          "name": "make",
          "type": "string"
        },
        {
          "name": "model",
          "type": "string"
        },
        {
          "name": "year",
          "type": "uint256"
        }
      ],
      "name": "addCar",
      "outputs": [],
      "payable": false,
      "stateMutability": "view",
      "type": "function"
    },
    {
      "constant": true,
      "inputs": [],
      "name": "getCarsByAddress",
      "outputs": [
        {
          "components": [
            {
              "name": "make",
              "type": "string"
            },
            {
              "name": "model",
              "type": "string"
            },
            {
              "name": "year",
              "type": "uint256"
            },
            {
              "name": "owner",
              "type": "address"
            }
          ],
          "name": "",
          "type": "tuple[]"
        }
      ],
      "payable": false,
      "stateMutability": "view",
      "type": "function"
    }
  ],
  "bytecode": "0x6060604052341561000f57600080fd5b33600360006101000a81548173ffffffffffffffffffffffffffffffffffffffff021916908373ffffffffffffffffffffffffffffffffffffffff1602179055506105468061005f6000396000f30060606040526004361061004c576000357c0100000000000000000000000000000000000000000000000000000000900463ffffffff16806305574ee9146100515780635a7edba5146100fa575b600080fd5b341561005c57600080fd5b6100f8600480803590602001908201803590602001908080601f0160208091040260200160405190810160405280939291908181526020018383808284378201915050505050509190803590602001908201803590602001908080601f0160208091040260200160405190810160405280939291908181526020018383808284378201915050505050509190803590602001909190505061015f565b005b341561010557600080fd5b61010d610257565b60405180806020018281038252838181518152602001915080516000925b8184101561014e578284906020019060200201518152602001926001019261012b565b925050509250505060405180910390f35b6080604051908101604052808481526020018381526020018281526020013373ffffffffffffffffffffffffffffffffffffffff16815250600060016000815480929190600101919050558154811015156101b657fe5b906000526020600020906004020160008201518160000190805190602001906101e0929190610461565b5060208201518160010190805190602001906101fd929190610461565b506040820151816002015560608201518160030160006101000a81548173ffffffffffffffffffffffffffffffffffffffff021916908373ffffffffffffffffffffffffffffffffffffffff160217905550905050505050565b61025f6104e1565b6000805480602002602001604051908101604052809291908181526020016000905b82821015610458578382906000526020600020906004020160806040519081016040529081600082018054600181600116156101000203166002900480601f01602080910402602001604051908101604052809291908181526020018280546001816001161561010002031660029004801561033e5780601f106103135761010080835404028352916020019161033e565b820191906000526020600020905b81548152906001019060200180831161032157829003601f168201915b50505050508152602001600182018054600181600116156101000203166002900480601f0160208091040260200160405190810160405280929190818152602001828054600181600116156101000203166002900480156103e05780601f106103b5576101008083540402835291602001916103e0565b820191906000526020600020905b8154815290600101906020018083116103c357829003601f168201915b50505050508152602001600282015481526020016003820160009054906101000a900473ffffffffffffffffffffffffffffffffffffffff1673ffffffffffffffffffffffffffffffffffffffff1673ffffffffffffffffffffffffffffffffffffffff168152505081526020019060010190610281565b50505050905090565b828054600181600116156101000203166002900490600052602060002090601f016020900481019282601f106104a257805160ff19168380011785556104d0565b828001600101855582156104d0579182015b828111156104cf5782518255916020019190600101906104b4565b5b5090506104dd91906104f5565b5090565b602060405190810160405280600081525090565b61051791905b808211156105135760008160009055506001016104fb565b5090565b905600a165627a7a723058200b48f24770593107b0dbe482515215013862535e47f31b5e8f750a5f6a739b6e0029",
  "source": "pragma solidity ^0.4.18;\r\n\r\ncontract CarLog {\r\n    struct Car {\r\n        string make;\r\n        string model;\r\n        uint256 year;\r\n        address owner;\r\n    }\r\n    \r\n    Car[] cars;\r\n    uint256 numCars; //car counters\r\n    \r\n    mapping (address => uint256) private carOwners;\r\n    address private contractOwner;\r\n    \r\n    function CarLog() public{\r\n        contractOwner = msg.sender;\r\n    }\r\n    \r\n    function addCar(string make, string model, uint256 year) view public{\r\n        cars[numCars++] = Car(make, model,year,msg.sender);\r\n    }\r\n    \r\n    function getCarsByAddress() view public returns(Car[]){\r\n        return cars;\r\n    }\r\n}",
  "sourcePath": "C:\\python\\softuni\\DecentralizedCarLog\\contracts\\CarLog.sol",
  "compiler": {
    "name": "solc",
    "version": "0.4.19+commit.c4cbbb05.Emscripten.clang"
  },
  "schemaVersion": "1.0.1",
  "updatedAt": "2018-02-25T12:07:06.935Z"
}